{
  "contractName": "CRManager",
  "abi": [
    {
      "constant": false,
      "inputs": [
        {
          "name": "cmcAddr",
          "type": "address"
        }
      ],
      "name": "setCMCAddress",
      "outputs": [
        {
          "name": "result",
          "type": "bool"
        }
      ],
      "payable": false,
      "stateMutability": "nonpayable",
      "type": "function"
    },
    {
      "constant": true,
      "inputs": [],
      "name": "Cmc",
      "outputs": [
        {
          "name": "",
          "type": "address"
        }
      ],
      "payable": false,
      "stateMutability": "view",
      "type": "function"
    },
    {
      "constant": false,
      "inputs": [],
      "name": "remove",
      "outputs": [],
      "payable": false,
      "stateMutability": "nonpayable",
      "type": "function"
    },
    {
      "inputs": [],
      "payable": false,
      "stateMutability": "nonpayable",
      "type": "constructor"
    },
    {
      "payable": false,
      "stateMutability": "nonpayable",
      "type": "fallback"
    },
    {
      "anonymous": false,
      "inputs": [
        {
          "indexed": false,
          "name": "",
          "type": "uint256"
        }
      ],
      "name": "LogEvent",
      "type": "event"
    },
    {
      "constant": true,
      "inputs": [],
      "name": "testFunction",
      "outputs": [
        {
          "name": "",
          "type": "bool"
        }
      ],
      "payable": false,
      "stateMutability": "view",
      "type": "function"
    },
    {
      "constant": true,
      "inputs": [
        {
          "name": "fileHash",
          "type": "bytes32"
        }
      ],
      "name": "documentExists",
      "outputs": [
        {
          "name": "",
          "type": "bool"
        }
      ],
      "payable": false,
      "stateMutability": "view",
      "type": "function"
    },
    {
      "constant": true,
      "inputs": [
        {
          "name": "fileHash",
          "type": "bytes32"
        }
      ],
      "name": "getDocument",
      "outputs": [
        {
          "name": "",
          "type": "bool"
        },
        {
          "name": "",
          "type": "bytes32"
        },
        {
          "name": "",
          "type": "bytes32"
        },
        {
          "name": "",
          "type": "bytes32"
        },
        {
          "name": "",
          "type": "uint256"
        }
      ],
      "payable": false,
      "stateMutability": "view",
      "type": "function"
    },
    {
      "constant": false,
      "inputs": [
        {
          "name": "fileHash",
          "type": "bytes32"
        },
        {
          "name": "title",
          "type": "bytes32"
        },
        {
          "name": "author",
          "type": "bytes32"
        },
        {
          "name": "email",
          "type": "bytes32"
        }
      ],
      "name": "uploadDocument",
      "outputs": [
        {
          "name": "res",
          "type": "bool"
        }
      ],
      "payable": false,
      "stateMutability": "nonpayable",
      "type": "function"
    },
    {
      "constant": true,
      "inputs": [
        {
          "name": "author",
          "type": "bytes32"
        },
        {
          "name": "index",
          "type": "uint256"
        }
      ],
      "name": "getAuthorDocuments",
      "outputs": [
        {
          "name": "",
          "type": "uint256"
        },
        {
          "name": "",
          "type": "bytes32"
        },
        {
          "name": "",
          "type": "bytes32"
        },
        {
          "name": "",
          "type": "uint256"
        }
      ],
      "payable": false,
      "stateMutability": "view",
      "type": "function"
    }
  ],
  "bytecode": "0x6060604052341561000f57600080fd5b33600160006101000a81548173ffffffffffffffffffffffffffffffffffffffff021916908373ffffffffffffffffffffffffffffffffffffffff160217905550610bd08061005f6000396000f30060606040526004361061008e576000357c0100000000000000000000000000000000000000000000000000000000900463ffffffff16806321b523dd1461009e578063423b4479146100ef5780639c64cf4714610155578063a6c662ea146101be578063a7f4377914610213578063b10d6b4114610228578063cbfe6d411461029b578063e16b4a9b146102da575b341561009957600080fd5b600080fd5b34156100a957600080fd5b6100d5600480803573ffffffffffffffffffffffffffffffffffffffff16906020019091905050610307565b604051808215151515815260200191505060405180910390f35b34156100fa57600080fd5b61013b6004808035600019169060200190919080356000191690602001909190803560001916906020019091908035600019169060200190919050506103f5565b604051808215151515815260200191505060405180910390f35b341561016057600080fd5b6101836004808035600019169060200190919080359060200190919050506105b1565b604051808581526020018460001916600019168152602001836000191660001916815260200182815260200194505050505060405180910390f35b34156101c957600080fd5b6101d1610794565b604051808273ffffffffffffffffffffffffffffffffffffffff1673ffffffffffffffffffffffffffffffffffffffff16815260200191505060405180910390f35b341561021e57600080fd5b6102266107b9565b005b341561023357600080fd5b61024d60048080356000191690602001909190505061084a565b60405180861515151581526020018560001916600019168152602001846000191660001916815260200183600019166000191681526020018281526020019550505050505060405180910390f35b34156102a657600080fd5b6102c0600480803560001916906020019091905050610a12565b604051808215151515815260200191505060405180910390f35b34156102e557600080fd5b6102ed610b9b565b604051808215151515815260200191505060405180910390f35b6000806000809054906101000a900473ffffffffffffffffffffffffffffffffffffffff1673ffffffffffffffffffffffffffffffffffffffff161415801561039d57506000809054906101000a900473ffffffffffffffffffffffffffffffffffffffff1673ffffffffffffffffffffffffffffffffffffffff163373ffffffffffffffffffffffffffffffffffffffff1614155b156103ab57600090506103f0565b816000806101000a81548173ffffffffffffffffffffffffffffffffffffffff021916908373ffffffffffffffffffffffffffffffffffffffff160217905550600190505b919050565b6000806000809054906101000a900473ffffffffffffffffffffffffffffffffffffffff1673ffffffffffffffffffffffffffffffffffffffff1663ec56a3736040518163ffffffff167c010000000000000000000000000000000000000000000000000000000002815260040180807f43524442000000000000000000000000000000000000000000000000000000008152506020019050602060405180830381600087803b15156104a757600080fd5b5af115156104b457600080fd5b50505060405180519050905060008173ffffffffffffffffffffffffffffffffffffffff1614156104e857600091506105a8565b8073ffffffffffffffffffffffffffffffffffffffff1663423b4479878787876040518563ffffffff167c0100000000000000000000000000000000000000000000000000000000028152600401808560001916600019168152602001846000191660001916815260200183600019166000191681526020018260001916600019168152602001945050505050602060405180830381600087803b151561058e57600080fd5b5af1151561059b57600080fd5b5050506040518051905091505b50949350505050565b60008060008060008060008060008060009054906101000a900473ffffffffffffffffffffffffffffffffffffffff1673ffffffffffffffffffffffffffffffffffffffff1663ec56a3736040518163ffffffff167c010000000000000000000000000000000000000000000000000000000002815260040180807f43524442000000000000000000000000000000000000000000000000000000008152506020019050602060405180830381600087803b151561066e57600080fd5b5af1151561067b57600080fd5b50505060405180519050945060008573ffffffffffffffffffffffffffffffffffffffff1614156106c2576000808191506000906000908090509850985098509850610786565b8473ffffffffffffffffffffffffffffffffffffffff16639c64cf478c8c6040518363ffffffff167c010000000000000000000000000000000000000000000000000000000002815260040180836000191660001916815260200182815260200192505050608060405180830381600087803b151561074057600080fd5b5af1151561074d57600080fd5b50505060405180519060200180519060200180519060200180519050809450819550829650839750505050508383838398509850985098505b505050505092959194509250565b6000809054906101000a900473ffffffffffffffffffffffffffffffffffffffff1681565b6000809054906101000a900473ffffffffffffffffffffffffffffffffffffffff1673ffffffffffffffffffffffffffffffffffffffff163373ffffffffffffffffffffffffffffffffffffffff161415610848576000809054906101000a900473ffffffffffffffffffffffffffffffffffffffff1673ffffffffffffffffffffffffffffffffffffffff16ff5b565b6000806000806000806000809054906101000a900473ffffffffffffffffffffffffffffffffffffffff1673ffffffffffffffffffffffffffffffffffffffff1663ec56a3736040518163ffffffff167c010000000000000000000000000000000000000000000000000000000002815260040180807f43524442000000000000000000000000000000000000000000000000000000008152506020019050602060405180830381600087803b151561090257600080fd5b5af1151561090f57600080fd5b50505060405180519050905060008173ffffffffffffffffffffffffffffffffffffffff1614156109585760008060009060009060009080905095509550955095509550610a08565b8073ffffffffffffffffffffffffffffffffffffffff1663b10d6b41886040518263ffffffff167c010000000000000000000000000000000000000000000000000000000002815260040180826000191660001916815260200191505060a060405180830381600087803b15156109ce57600080fd5b5af115156109db57600080fd5b50505060405180519060200180519060200180519060200180519060200180519050955095509550955095505b5091939590929450565b6000806000809054906101000a900473ffffffffffffffffffffffffffffffffffffffff1673ffffffffffffffffffffffffffffffffffffffff1663ec56a3736040518163ffffffff167c010000000000000000000000000000000000000000000000000000000002815260040180807f43524442000000000000000000000000000000000000000000000000000000008152506020019050602060405180830381600087803b1515610ac457600080fd5b5af11515610ad157600080fd5b50505060405180519050905060008173ffffffffffffffffffffffffffffffffffffffff161415610b055760009150610b95565b8073ffffffffffffffffffffffffffffffffffffffff1663cbfe6d41846040518263ffffffff167c0100000000000000000000000000000000000000000000000000000000028152600401808260001916600019168152602001915050602060405180830381600087803b1515610b7b57600080fd5b5af11515610b8857600080fd5b5050506040518051905091505b50919050565b600060019050905600a165627a7a723058206cec0e8aab6322c5c7ff7340e63f93b4b7e30f20198cf183a2c9cf9aee72b29d0029",
  "source": "pragma solidity ^0.4.0;\r\n\r\n\r\n// ********************** CMCEnabled Contract  ******************************\r\ncontract CMCEnabled {\r\n    address public Cmc;\r\n\r\n    function setCMCAddress(address cmcAddr) returns (bool result) {\r\n        if(Cmc != 0x0 && msg.sender != Cmc) {\r\n            return false;\r\n        }\r\n        Cmc = cmcAddr;\r\n        return true;\r\n    }\r\n\r\n    function remove() {\r\n        if(msg.sender == Cmc) {\r\n            selfdestruct(Cmc);\r\n        }\r\n    }\r\n\r\n    //Rejector\r\n    function() { throw; }\r\n    \r\n}\r\n\r\n\r\n// ********************** CMC Contract  ******************************\r\n//Contract-managing-contract \r\ncontract CMC {\r\n\r\n    address owner;\r\n\r\n    mapping (bytes32 => address) public contracts;\r\n\r\n\r\n    modifier onlyOwner { \r\n        if (msg.sender == owner) \r\n            _;\r\n    }\r\n\r\n    function CMC() {\r\n        owner = msg.sender;\r\n    }\r\n    \r\n    //Rejector\r\n    function() { throw; }\r\n    \r\n    //testing function \r\n    //function GetContract(bytes32 name) constant returns (address loc) {\r\n        \r\n        //return contracts[name];\r\n    //}\r\n\r\n    function addContract(bytes32 name, address addr) onlyOwner returns (bool result) {\r\n        CMCEnabled de = CMCEnabled(addr);\r\n\r\n        if(!de.setCMCAddress(address(this))) {\r\n            return false;\r\n        }\r\n        contracts[name] = addr;\r\n        return true;\r\n    }\r\n\r\n    function removeContract(bytes32 name) onlyOwner returns (bool result) {\r\n        if (contracts[name] == 0x0){\r\n            return false;\r\n        }\r\n        contracts[name] = 0x0;\r\n        return true;\r\n    }\r\n\r\n    function remove() onlyOwner {\r\n        address crmanager = contracts[\"CRManager\"];\r\n        address crdb = contracts[\"CRDB\"];\r\n\r\n        // Remove everything.\r\n        if(crmanager != 0x0){ CMCEnabled(crmanager).remove(); }\r\n        if(crdb != 0x0){ CMCEnabled(crdb).remove(); }\r\n\r\n        selfdestruct(owner);\r\n    }\r\n}\r\n\r\n\r\n// ********************** ContractProvider contract  ******************************\r\ncontract ContractProvider is CMCEnabled {\r\n    //Rejector\r\n    function() { throw; }\r\n\r\n    function contracts(bytes32 name) returns (address addr) {}\r\n}\r\n\r\n\r\n// ********************** CRManagerEnabled contract  ******************************\r\ncontract CRManagerEnabled is CMCEnabled {\r\n\r\n    // Makes it easier to check that fundmanager is the caller.\r\n    function isCRManager() constant returns (bool) {\r\n        if(Cmc != 0x0){\r\n            address crmanager = ContractProvider(Cmc).contracts(\"CRManager\");\r\n            return msg.sender == crmanager;\r\n            //return true;\r\n        }\r\n        return true;\r\n    }\r\n    \r\n    //Rejector\r\n    function() { throw; }\r\n\r\n}\r\n\r\n\r\n// ********************** CRManager contract  ******************************\r\n// Contract dat dient als interface naar de gebruiker\r\ncontract CRManager is CMCEnabled {\r\n\r\n    address owner;\r\n\r\n    event LogEvent(uint);\r\n\r\n    //Modifiers\r\n    modifier Only(address _address) {\r\n        if (msg.sender != _address) throw;\r\n        _;\r\n    }\r\n          \r\n    function CRManager() /*payable*/ {\r\n        owner = msg.sender;\r\n    }\r\n\r\n    function testFunction() view public returns(bool) {\r\n\r\n\r\n\r\n        return true;\r\n    }\r\n\r\n    function documentExists(bytes32 fileHash) view public returns(bool) {\r\n\r\n        address crdb = ContractProvider(Cmc).contracts(\"CRDB\");\r\n        \r\n        if (crdb == 0x0 ) {\r\n            return (false);\r\n        } \r\n        return CRDB(crdb).documentExists(fileHash);\r\n    }\r\n\r\n    function getDocument(bytes32 fileHash) view public returns (bool,bytes32,bytes32,bytes32,uint) {\r\n        \r\n        address crdb = ContractProvider(Cmc).contracts(\"CRDB\");\r\n        \r\n        if (crdb == 0x0 ) {\r\n            return (false,\"\",\"\",\"\",0);\r\n        } \r\n\r\n        //return (true,\"0x4d7920446f63756d656e74\",\"0x4b6576696e\",\"0x7465737440746573742e6265\",1);\r\n        return CRDB(crdb).getDocument(fileHash);\r\n\r\n    }\r\n\r\n    function uploadDocument(bytes32 fileHash,bytes32 title, bytes32 author,bytes32 email) public returns (bool res) { \r\n\r\n        address crdb = ContractProvider(Cmc).contracts(\"CRDB\");\r\n        \r\n        if (crdb == 0x0 ) {\r\n            return false;\r\n        } \r\n\r\n        return CRDB(crdb).uploadDocument(fileHash, title, author, email);\r\n    }\r\n\r\n    function getAuthorDocuments(bytes32 author,uint256 index) view public returns(uint256,bytes32,bytes32,uint) {\r\n\r\n        address crdb = ContractProvider(Cmc).contracts(\"CRDB\");\r\n        \r\n        if (crdb == 0x0 ) {\r\n            return (0,\"\",\"\",0);\r\n        } \r\n\r\n        uint256 length;\r\n        bytes32 title;\r\n        bytes32 email;\r\n        uint createdOn;\r\n\r\n        (length, title, email, createdOn) =  CRDB(crdb).getAuthorDocuments(author, index);\r\n        return (length, title, email, createdOn);\r\n    }\r\n    \r\n}\r\n\r\n// ********************** CRDB contract  ******************************\r\n\r\ncontract CRDB is CRManagerEnabled {\r\n    address owner;\r\n    mapping(bytes32 => Document) documents;\r\n    mapping(bytes32 => bytes32[]) authorDocuments;\r\n\r\n    struct Document {\r\n        bytes32 fileHash;\r\n        bytes32 title;\r\n        bytes32 author;\r\n        bytes32 email;\r\n        uint createdOn;\r\n        bool isValue;\r\n    }\r\n\r\n    modifier documentMustNotExist(bytes32 fileHash){\r\n        require(!documents[fileHash].isValue);\r\n        _;\r\n    }\r\n\r\n    function CRDB() public {\r\n        owner = msg.sender;\r\n    }\r\n\r\n    function uploadDocument(bytes32 fileHash,bytes32 title, bytes32 author,bytes32 email) public documentMustNotExist(fileHash) returns (bool) {  \r\n\r\n        if (!isCRManager()) {\r\n            return false;\r\n        }\r\n\r\n       Document memory newDocument;\r\n       newDocument.fileHash = fileHash;\r\n       newDocument.title = title;\r\n       newDocument.author = author;\r\n       newDocument.email = email;\r\n       newDocument.createdOn = block.timestamp;\r\n       newDocument.isValue = true;\r\n\r\n       documents[fileHash] = newDocument;\r\n\r\n       authorDocuments[author].push(fileHash);\r\n       \r\n       return true;\r\n    }\r\n\r\n    function getDocument(bytes32 fileHash) view public returns (bool,bytes32,bytes32,bytes32,uint) {\r\n\r\n        if (!isCRManager()){\r\n            return (false,\"\",\"\",\"\",0);\r\n        }\r\n    \r\n        Document memory doc = documents[fileHash];\r\n\r\n        return (doc.isValue,doc.title,doc.author,doc.email,doc.createdOn);\r\n    }\r\n\r\n    function documentExists(bytes32 fileHash) view public returns(bool) {\r\n        return documents[fileHash].isValue;\r\n    }\r\n\r\n    //returns amount of documents / title / email\r\n    function getAuthorDocuments(bytes32 author,uint256 index) view public returns(uint256,bytes32,bytes32,uint) {\r\n        bytes32[] documentsForAuthor = authorDocuments[author];\r\n        if (documentsForAuthor.length == 0) {\r\n            return (0,\"\",\"\",0);\r\n        } else {\r\n            Document memory doc = documents[documentsForAuthor[index]];\r\n            return (documentsForAuthor.length,doc.title,doc.email,doc.createdOn);\r\n        }\r\n    }\r\n}\r\n\r\n",
  "sourcePath": "c:\\Projects\\DocumentAuthenticity\\contracts\\CMC-DA.sol",
  "compiler": {
    "name": "solc",
    "version": "0.4.21+commit.dfe3193c.Emscripten.clang"
  },
  "schemaVersion": "2.0.0",
  "updatedAt": "2018-04-14T11:31:52.814Z"
}