{
  "contractName": "DocumentWriter",
  "abi": [
    {
      "inputs": [],
      "payable": false,
      "stateMutability": "nonpayable",
      "type": "constructor"
    },
    {
      "constant": false,
      "inputs": [
        {
          "name": "fileHash",
          "type": "string"
        },
        {
          "name": "title",
          "type": "string"
        },
        {
          "name": "author",
          "type": "string"
        },
        {
          "name": "email",
          "type": "string"
        }
      ],
      "name": "uploadDocument",
      "outputs": [],
      "payable": false,
      "stateMutability": "nonpayable",
      "type": "function"
    },
    {
      "constant": true,
      "inputs": [
        {
          "name": "fileHash",
          "type": "string"
        }
      ],
      "name": "getDocument",
      "outputs": [
        {
          "name": "",
          "type": "bool"
        },
        {
          "name": "",
          "type": "string"
        },
        {
          "name": "",
          "type": "string"
        },
        {
          "name": "",
          "type": "string"
        },
        {
          "name": "",
          "type": "uint256"
        }
      ],
      "payable": false,
      "stateMutability": "view",
      "type": "function"
    },
    {
      "constant": true,
      "inputs": [
        {
          "name": "fileHash",
          "type": "string"
        }
      ],
      "name": "documentExists",
      "outputs": [
        {
          "name": "",
          "type": "bool"
        }
      ],
      "payable": false,
      "stateMutability": "view",
      "type": "function"
    },
    {
      "constant": true,
      "inputs": [
        {
          "name": "author",
          "type": "string"
        },
        {
          "name": "index",
          "type": "uint256"
        }
      ],
      "name": "getAuthorDocuments",
      "outputs": [
        {
          "name": "",
          "type": "uint256"
        },
        {
          "name": "",
          "type": "string"
        },
        {
          "name": "",
          "type": "string"
        },
        {
          "name": "",
          "type": "uint256"
        }
      ],
      "payable": false,
      "stateMutability": "view",
      "type": "function"
    }
  ],
  "bytecode": "0x6060604052341561000f57600080fd5b336000806101000a81548173ffffffffffffffffffffffffffffffffffffffff021916908373ffffffffffffffffffffffffffffffffffffffff1602179055506112578061005e6000396000f300606060405260043610610062576000357c0100000000000000000000000000000000000000000000000000000000900463ffffffff1680633026785f146100675780633ef9d9e1146100dc5780637ccb6a641461020257806380209427146103c2575b600080fd5b341561007257600080fd5b6100c2600480803590602001908201803590602001908080601f0160208091040260200160405190810160405280939291908181526020018383808284378201915050505050509190505061051b565b604051808215151515815260200191505060405180910390f35b34156100e757600080fd5b610200600480803590602001908201803590602001908080601f0160208091040260200160405190810160405280939291908181526020018383808284378201915050505050509190803590602001908201803590602001908080601f0160208091040260200160405190810160405280939291908181526020018383808284378201915050505050509190803590602001908201803590602001908080601f0160208091040260200160405190810160405280939291908181526020018383808284378201915050505050509190803590602001908201803590602001908080601f016020809104026020016040519081016040528093929190818152602001838380828437820191505050505050919050506105a0565b005b341561020d57600080fd5b61025d600480803590602001908201803590602001908080601f0160208091040260200160405190810160405280939291908181526020018383808284378201915050505050509190505061082a565b6040518086151515158152602001806020018060200180602001858152602001848103845288818151815260200191508051906020019080838360005b838110156102b557808201518184015260208101905061029a565b50505050905090810190601f1680156102e25780820380516001836020036101000a031916815260200191505b50848103835287818151815260200191508051906020019080838360005b8381101561031b578082015181840152602081019050610300565b50505050905090810190601f1680156103485780820380516001836020036101000a031916815260200191505b50848103825286818151815260200191508051906020019080838360005b83811015610381578082015181840152602081019050610366565b50505050905090810190601f1680156103ae5780820380516001836020036101000a031916815260200191505b509850505050505050505060405180910390f35b34156103cd57600080fd5b610426600480803590602001908201803590602001908080601f01602080910402602001604051908101604052809392919081815260200183838082843782019150505050505091908035906020019091905050610baa565b604051808581526020018060200180602001848152602001838103835286818151815260200191508051906020019080838360005b8381101561047657808201518184015260208101905061045b565b50505050905090810190601f1680156104a35780820380516001836020036101000a031916815260200191505b50838103825285818151815260200191508051906020019080838360005b838110156104dc5780820151818401526020810190506104c1565b50505050905090810190601f1680156105095780820380516001836020036101000a031916815260200191505b50965050505050505060405180910390f35b60006001826040518082805190602001908083835b6020831015156105555780518252602082019150602081019050602083039250610530565b6001836020036101000a038019825116818451168082178552505050505050905001915050908152602001604051809103902060050160009054906101000a900460ff169050919050565b6105a8610fed565b846001816040518082805190602001908083835b6020831015156105e157805182526020820191506020810190506020830392506105bc565b6001836020036101000a038019825116818451168082178552505050505050905001915050908152602001604051809103902060050160009054906101000a900460ff1615151561063157600080fd5b8582600001819052508482602001819052508382604001819052508282606001819052504282608001818152505060018260a0019015159081151581525050816001876040518082805190602001908083835b6020831015156106a95780518252602082019150602081019050602083039250610684565b6001836020036101000a038019825116818451168082178552505050505050905001915050908152602001604051809103902060008201518160000190805190602001906106f892919061103e565b50602082015181600101908051906020019061071592919061103e565b50604082015181600201908051906020019061073292919061103e565b50606082015181600301908051906020019061074f92919061103e565b506080820151816004015560a08201518160050160006101000a81548160ff0219169083151502179055509050506002846040518082805190602001908083835b6020831015156107b55780518252602082019150602081019050602083039250610790565b6001836020036101000a038019825116818451168082178552505050505050905001915050908152602001604051809103902080548060010182816107fa91906110be565b9160005260206000209001600088909190915090805190602001906108209291906110ea565b5050505050505050565b600061083461116a565b61083c61116a565b61084461116a565b600061084e610fed565b6001876040518082805190602001908083835b6020831015156108865780518252602082019150602081019050602083039250610861565b6001836020036101000a038019825116818451168082178552505050505050905001915050908152602001604051809103902060c06040519081016040529081600082018054600181600116156101000203166002900480601f01602080910402602001604051908101604052809291908181526020018280546001816001161561010002031660029004801561095e5780601f106109335761010080835404028352916020019161095e565b820191906000526020600020905b81548152906001019060200180831161094157829003601f168201915b50505050508152602001600182018054600181600116156101000203166002900480601f016020809104026020016040519081016040528092919081815260200182805460018160011615610100020316600290048015610a005780601f106109d557610100808354040283529160200191610a00565b820191906000526020600020905b8154815290600101906020018083116109e357829003601f168201915b50505050508152602001600282018054600181600116156101000203166002900480601f016020809104026020016040519081016040528092919081815260200182805460018160011615610100020316600290048015610aa25780601f10610a7757610100808354040283529160200191610aa2565b820191906000526020600020905b815481529060010190602001808311610a8557829003601f168201915b50505050508152602001600382018054600181600116156101000203166002900480601f016020809104026020016040519081016040528092919081815260200182805460018160011615610100020316600290048015610b445780601f10610b1957610100808354040283529160200191610b44565b820191906000526020600020905b815481529060010190602001808311610b2757829003601f168201915b50505050508152602001600482015481526020016005820160009054906101000a900460ff16151515158152505090508060a001518160200151826040015183606001518460800151839350829250819150955095509550955095505091939590929450565b6000610bb461116a565b610bbc61116a565b600080610bc7610fed565b6002886040518082805190602001908083835b602083101515610bff5780518252602082019150602081019050602083039250610bda565b6001836020036101000a03801982511681845116808217855250505050505090500191505090815260200160405180910390209150600082805490501415610c7b576000808191506020604051908101604052806000815250906020604051908101604052806000815250908090509550955095509550610fe2565b60018288815481101515610c8b57fe5b90600052602060002090016040518082805460018160011615610100020316600290048015610cf15780601f10610ccf576101008083540402835291820191610cf1565b820191906000526020600020905b815481529060010190602001808311610cdd575b5050915050908152602001604051809103902060c06040519081016040529081600082018054600181600116156101000203166002900480601f016020809104026020016040519081016040528092919081815260200182805460018160011615610100020316600290048015610da95780601f10610d7e57610100808354040283529160200191610da9565b820191906000526020600020905b815481529060010190602001808311610d8c57829003601f168201915b50505050508152602001600182018054600181600116156101000203166002900480601f016020809104026020016040519081016040528092919081815260200182805460018160011615610100020316600290048015610e4b5780601f10610e2057610100808354040283529160200191610e4b565b820191906000526020600020905b815481529060010190602001808311610e2e57829003601f168201915b50505050508152602001600282018054600181600116156101000203166002900480601f016020809104026020016040519081016040528092919081815260200182805460018160011615610100020316600290048015610eed5780601f10610ec257610100808354040283529160200191610eed565b820191906000526020600020905b815481529060010190602001808311610ed057829003601f168201915b50505050508152602001600382018054600181600116156101000203166002900480601f016020809104026020016040519081016040528092919081815260200182805460018160011615610100020316600290048015610f8f5780601f10610f6457610100808354040283529160200191610f8f565b820191906000526020600020905b815481529060010190602001808311610f7257829003601f168201915b50505050508152602001600482015481526020016005820160009054906101000a900460ff1615151515815250509050818054905081602001518260600151836080015182925081915095509550955095505b505092959194509250565b60c06040519081016040528061100161117e565b815260200161100e61117e565b815260200161101b61117e565b815260200161102861117e565b8152602001600081526020016000151581525090565b828054600181600116156101000203166002900490600052602060002090601f016020900481019282601f1061107f57805160ff19168380011785556110ad565b828001600101855582156110ad579182015b828111156110ac578251825591602001919060010190611091565b5b5090506110ba9190611192565b5090565b8154818355818115116110e5578183600052602060002091820191016110e491906111b7565b5b505050565b828054600181600116156101000203166002900490600052602060002090601f016020900481019282601f1061112b57805160ff1916838001178555611159565b82800160010185558215611159579182015b8281111561115857825182559160200191906001019061113d565b5b5090506111669190611192565b5090565b602060405190810160405280600081525090565b602060405190810160405280600081525090565b6111b491905b808211156111b0576000816000905550600101611198565b5090565b90565b6111e091905b808211156111dc57600081816111d391906111e3565b506001016111bd565b5090565b90565b50805460018160011615610100020316600290046000825580601f106112095750611228565b601f0160209004906000526020600020908101906112279190611192565b5b505600a165627a7a723058203cda725193b68d6dc6779740ab83def035fb83bbcead6c3e74801e222fec256d0029",
  "source": "pragma solidity ^0.4.17;\r\n\r\ncontract DocumentWriter {\r\n    address owner;\r\n    mapping(string => Document) documents;\r\n    mapping(string => string[]) authorDocuments;\r\n\r\n    struct Document {\r\n        string fileHash;\r\n        string title;\r\n        string author;\r\n        string email;\r\n        uint createdOn;\r\n        bool isValue;\r\n    }\r\n\r\n    modifier documentMustNotExist(string fileHash){\r\n        require(!documents[fileHash].isValue);\r\n        _;\r\n    }\r\n\r\n    function DocumentWriter() public {\r\n        owner = msg.sender;\r\n    }\r\n\r\n    function uploadDocument(string fileHash,string title, string author,string email) public documentMustNotExist(fileHash) {  \r\n       Document memory newDocument;\r\n       newDocument.fileHash = fileHash;\r\n       newDocument.title = title;\r\n       newDocument.author = author;\r\n       newDocument.email = email;\r\n       newDocument.createdOn = block.timestamp;\r\n       newDocument.isValue = true;\r\n\r\n       documents[fileHash] = newDocument;\r\n\r\n       authorDocuments[author].push(fileHash);\r\n    }\r\n\r\n    function getDocument(string fileHash) view public returns (bool,string,string,string,uint) {\r\n        Document memory doc = documents[fileHash];\r\n\r\n        return (doc.isValue,doc.title,doc.author,doc.email,doc.createdOn);\r\n    }\r\n\r\n    function documentExists(string fileHash) view public returns(bool) {\r\n        return documents[fileHash].isValue;\r\n    }\r\n    //returns amount of documents / title / email\r\n    function getAuthorDocuments(string author,uint256 index) view public returns(uint256,string,string,uint) {\r\n        string[] documentsForAuthor = authorDocuments[author];\r\n        if (documentsForAuthor.length == 0) {\r\n            return (0,\"\",\"\",0);\r\n        } else {\r\n            Document memory doc = documents[documentsForAuthor[index]];\r\n            return (documentsForAuthor.length,doc.title,doc.email,doc.createdOn);\r\n        }\r\n    }\r\n}",
  "sourcePath": "c:\\Projects\\DocumentAuthenticity\\contracts\\DocumentWriter.sol",
  "compiler": {
    "name": "solc",
    "version": "0.4.21+commit.dfe3193c.Emscripten.clang"
  },
  "schemaVersion": "2.0.0",
  "updatedAt": "2018-04-15T12:38:21.082Z"
}