{
  "contractName": "DocumentWriter",
  "abi": [
    {
      "inputs": [],
      "payable": false,
      "stateMutability": "nonpayable",
      "type": "constructor"
    },
    {
      "constant": false,
      "inputs": [
        {
          "name": "fileHash",
          "type": "string"
        },
        {
          "name": "title",
          "type": "string"
        },
        {
          "name": "author",
          "type": "string"
        },
        {
          "name": "email",
          "type": "string"
        },
        {
          "name": "createdOn",
          "type": "uint256"
        }
      ],
      "name": "uploadDocument",
      "outputs": [],
      "payable": false,
      "stateMutability": "nonpayable",
      "type": "function"
    },
    {
      "constant": true,
      "inputs": [
        {
          "name": "fileHash",
          "type": "string"
        }
      ],
      "name": "getDocument",
      "outputs": [
        {
          "name": "",
          "type": "bool"
        },
        {
          "name": "",
          "type": "string"
        },
        {
          "name": "",
          "type": "string"
        },
        {
          "name": "",
          "type": "string"
        }
      ],
      "payable": false,
      "stateMutability": "view",
      "type": "function"
    },
    {
      "constant": true,
      "inputs": [
        {
          "name": "fileHash",
          "type": "string"
        }
      ],
      "name": "documentExists",
      "outputs": [
        {
          "name": "",
          "type": "bool"
        }
      ],
      "payable": false,
      "stateMutability": "view",
      "type": "function"
    },
    {
      "constant": true,
      "inputs": [
        {
          "name": "author",
          "type": "string"
        },
        {
          "name": "index",
          "type": "uint256"
        }
      ],
      "name": "getAuthorDocuments",
      "outputs": [
        {
          "name": "",
          "type": "uint256"
        },
        {
          "name": "",
          "type": "string"
        },
        {
          "name": "",
          "type": "string"
        }
      ],
      "payable": false,
      "stateMutability": "view",
      "type": "function"
    }
  ],
  "bytecode": "0x6060604052341561000f57600080fd5b336000806101000a81548173ffffffffffffffffffffffffffffffffffffffff021916908373ffffffffffffffffffffffffffffffffffffffff160217905550610ebb8061005e6000396000f300606060405260043610610062576000357c0100000000000000000000000000000000000000000000000000000000900463ffffffff1680633026785f146100675780636c867cae146100dc5780637ccb6a641461020b57806380209427146103c4575b600080fd5b341561007257600080fd5b6100c2600480803590602001908201803590602001908080601f01602080910402602001604051908101604052809392919081815260200183838082843782019150505050505091905050610516565b604051808215151515815260200191505060405180910390f35b34156100e757600080fd5b610209600480803590602001908201803590602001908080601f0160208091040260200160405190810160405280939291908181526020018383808284378201915050505050509190803590602001908201803590602001908080601f0160208091040260200160405190810160405280939291908181526020018383808284378201915050505050509190803590602001908201803590602001908080601f0160208091040260200160405190810160405280939291908181526020018383808284378201915050505050509190803590602001908201803590602001908080601f0160208091040260200160405190810160405280939291908181526020018383808284378201915050505050509190803590602001909190505061059b565b005b341561021657600080fd5b610266600480803590602001908201803590602001908080601f01602080910402602001604051908101604052809392919081815260200183838082843782019150505050505091905050610826565b6040518085151515158152602001806020018060200180602001848103845287818151815260200191508051906020019080838360005b838110156102b857808201518184015260208101905061029d565b50505050905090810190601f1680156102e55780820380516001836020036101000a031916815260200191505b50848103835286818151815260200191508051906020019080838360005b8381101561031e578082015181840152602081019050610303565b50505050905090810190601f16801561034b5780820380516001836020036101000a031916815260200191505b50848103825285818151815260200191508051906020019080838360005b83811015610384578082015181840152602081019050610369565b50505050905090810190601f1680156103b15780820380516001836020036101000a031916815260200191505b5097505050505050505060405180910390f35b34156103cf57600080fd5b610428600480803590602001908201803590602001908080601f01602080910402602001604051908101604052809392919081815260200183838082843782019150505050505091908035906020019091905050610b9b565b604051808481526020018060200180602001838103835285818151815260200191508051906020019080838360005b83811015610472578082015181840152602081019050610457565b50505050905090810190601f16801561049f5780820380516001836020036101000a031916815260200191505b50838103825284818151815260200191508051906020019080838360005b838110156104d85780820151818401526020810190506104bd565b50505050905090810190601f1680156105055780820380516001836020036101000a031916815260200191505b509550505050505060405180910390f35b60006001826040518082805190602001908083835b602083101515610550578051825260208201915060208101905060208303925061052b565b6001836020036101000a038019825116818451168082178552505050505050905001915050908152602001604051809103902060050160009054906101000a900460ff169050919050565b6105a3610c51565b856001816040518082805190602001908083835b6020831015156105dc57805182526020820191506020810190506020830392506105b7565b6001836020036101000a038019825116818451168082178552505050505050905001915050908152602001604051809103902060050160009054906101000a900460ff1615151561062c57600080fd5b8682600001819052508582602001819052508482604001819052508382606001819052508282608001818152505060018260a0019015159081151581525050816001886040518082805190602001908083835b6020831015156106a4578051825260208201915060208101905060208303925061067f565b6001836020036101000a038019825116818451168082178552505050505050905001915050908152602001604051809103902060008201518160000190805190602001906106f3929190610ca2565b506020820151816001019080519060200190610710929190610ca2565b50604082015181600201908051906020019061072d929190610ca2565b50606082015181600301908051906020019061074a929190610ca2565b506080820151816004015560a08201518160050160006101000a81548160ff0219169083151502179055509050506002856040518082805190602001908083835b6020831015156107b0578051825260208201915060208101905060208303925061078b565b6001836020036101000a038019825116818451168082178552505050505050905001915050908152602001604051809103902080548060010182816107f59190610d22565b91600052602060002090016000899091909150908051906020019061081b929190610d4e565b505050505050505050565b6000610830610dce565b610838610dce565b610840610dce565b610848610c51565b6001866040518082805190602001908083835b602083101515610880578051825260208201915060208101905060208303925061085b565b6001836020036101000a038019825116818451168082178552505050505050905001915050908152602001604051809103902060c06040519081016040529081600082018054600181600116156101000203166002900480601f0160208091040260200160405190810160405280929190818152602001828054600181600116156101000203166002900480156109585780601f1061092d57610100808354040283529160200191610958565b820191906000526020600020905b81548152906001019060200180831161093b57829003601f168201915b50505050508152602001600182018054600181600116156101000203166002900480601f0160208091040260200160405190810160405280929190818152602001828054600181600116156101000203166002900480156109fa5780601f106109cf576101008083540402835291602001916109fa565b820191906000526020600020905b8154815290600101906020018083116109dd57829003601f168201915b50505050508152602001600282018054600181600116156101000203166002900480601f016020809104026020016040519081016040528092919081815260200182805460018160011615610100020316600290048015610a9c5780601f10610a7157610100808354040283529160200191610a9c565b820191906000526020600020905b815481529060010190602001808311610a7f57829003601f168201915b50505050508152602001600382018054600181600116156101000203166002900480601f016020809104026020016040519081016040528092919081815260200182805460018160011615610100020316600290048015610b3e5780601f10610b1357610100808354040283529160200191610b3e565b820191906000526020600020905b815481529060010190602001808311610b2157829003601f168201915b50505050508152602001600482015481526020016005820160009054906101000a900460ff16151515158152505090508060a001518160200151826040015183606001518292508191508090509450945094509450509193509193565b6000610ba5610dce565b610bad610dce565b60006002866040518082805190602001908083835b602083101515610be75780518252602082019150602081019050602083039250610bc2565b6001836020036101000a03801982511681845116808217855250505050505090500191505090815260200160405180910390209050808054905060206040519081016040528060008152506020604051908101604052806000815250935093509350509250925092565b60c060405190810160405280610c65610de2565b8152602001610c72610de2565b8152602001610c7f610de2565b8152602001610c8c610de2565b8152602001600081526020016000151581525090565b828054600181600116156101000203166002900490600052602060002090601f016020900481019282601f10610ce357805160ff1916838001178555610d11565b82800160010185558215610d11579182015b82811115610d10578251825591602001919060010190610cf5565b5b509050610d1e9190610df6565b5090565b815481835581811511610d4957818360005260206000209182019101610d489190610e1b565b5b505050565b828054600181600116156101000203166002900490600052602060002090601f016020900481019282601f10610d8f57805160ff1916838001178555610dbd565b82800160010185558215610dbd579182015b82811115610dbc578251825591602001919060010190610da1565b5b509050610dca9190610df6565b5090565b602060405190810160405280600081525090565b602060405190810160405280600081525090565b610e1891905b80821115610e14576000816000905550600101610dfc565b5090565b90565b610e4491905b80821115610e405760008181610e379190610e47565b50600101610e21565b5090565b90565b50805460018160011615610100020316600290046000825580601f10610e6d5750610e8c565b601f016020900490600052602060002090810190610e8b9190610df6565b5b505600a165627a7a723058205d1b6e651064ff412444660bdf3ff08c965766231ba4c0bab86f5ec0fa208cab0029",
  "source": "pragma solidity ^0.4.17;\r\n\r\ncontract DocumentWriter {\r\n    address owner;\r\n    mapping(string => Document) documents;\r\n    mapping(string => string[]) authorDocuments;\r\n\r\n    struct Document {\r\n        string fileHash;\r\n        string title;\r\n        string author;\r\n        string email;\r\n        uint256 createdOn;\r\n        bool isValue;\r\n    }\r\n\r\n    modifier documentMustNotExist(string fileHash){\r\n        require(!documents[fileHash].isValue);\r\n        _;\r\n    }\r\n\r\n    function DocumentWriter() public {\r\n        owner = msg.sender;\r\n    }\r\n\r\n    function uploadDocument(string fileHash,string title, string author,string email, uint256 createdOn) public documentMustNotExist(fileHash) {  \r\n       Document memory newDocument;\r\n       newDocument.fileHash = fileHash;\r\n       newDocument.title = title;\r\n       newDocument.author = author;\r\n       newDocument.email = email;\r\n       newDocument.createdOn = createdOn;\r\n       newDocument.isValue = true;\r\n\r\n       documents[fileHash] = newDocument;\r\n\r\n       authorDocuments[author].push(fileHash);\r\n    }\r\n\r\n    function getDocument(string fileHash) view public returns (bool,string,string,string) {\r\n        Document memory doc = documents[fileHash];\r\n\r\n        return (doc.isValue,doc.title,doc.author,doc.email);\r\n    }\r\n\r\n    function documentExists(string fileHash) view public returns(bool) {\r\n        return documents[fileHash].isValue;\r\n    }\r\n    //returns amount of documents / title / email\r\n    function getAuthorDocuments(string author,uint256 index) view public returns(uint256,string,string) {\r\n        string[] documents = authorDocuments[author];\r\n        // Document memory doc = documents[documents[author][index]];\r\n        return (documents.length,\"\",\"\");\r\n    }\r\n}",
  "sourcePath": "c:\\Projects\\DocumentAuthenticity\\contracts\\DocumentWriter.sol",
  "compiler": {
    "name": "solc",
    "version": "0.4.21+commit.dfe3193c.Emscripten.clang"
  },
  "schemaVersion": "2.0.0",
  "updatedAt": "2018-04-10T20:47:09.722Z"
}