{
  "contractName": "DocumentWriter",
  "abi": [
    {
      "inputs": [],
      "payable": false,
      "stateMutability": "nonpayable",
      "type": "constructor"
    },
    {
      "constant": false,
      "inputs": [
        {
          "name": "fileHash",
          "type": "string"
        },
        {
          "name": "title",
          "type": "string"
        },
        {
          "name": "author",
          "type": "string"
        },
        {
          "name": "email",
          "type": "string"
        },
        {
          "name": "createdOn",
          "type": "uint256"
        }
      ],
      "name": "uploadDocument",
      "outputs": [],
      "payable": false,
      "stateMutability": "nonpayable",
      "type": "function"
    },
    {
      "constant": true,
      "inputs": [
        {
          "name": "fileHash",
          "type": "string"
        }
      ],
      "name": "getDocument",
      "outputs": [
        {
          "name": "",
          "type": "bool"
        },
        {
          "name": "",
          "type": "string"
        },
        {
          "name": "",
          "type": "string"
        },
        {
          "name": "",
          "type": "string"
        }
      ],
      "payable": false,
      "stateMutability": "view",
      "type": "function"
    },
    {
      "constant": true,
      "inputs": [
        {
          "name": "fileHash",
          "type": "string"
        }
      ],
      "name": "documentExists",
      "outputs": [
        {
          "name": "",
          "type": "bool"
        }
      ],
      "payable": false,
      "stateMutability": "view",
      "type": "function"
    }
  ],
  "bytecode": "0x6060604052341561000f57600080fd5b336000806101000a81548173ffffffffffffffffffffffffffffffffffffffff021916908373ffffffffffffffffffffffffffffffffffffffff160217905550610ae38061005e6000396000f300606060405260043610610057576000357c0100000000000000000000000000000000000000000000000000000000900463ffffffff1680633026785f1461005c5780636c867cae146100d15780637ccb6a6414610200575b600080fd5b341561006757600080fd5b6100b7600480803590602001908201803590602001908080601f016020809104026020016040519081016040528093929190818152602001838380828437820191505050505050919050506103b9565b604051808215151515815260200191505060405180910390f35b34156100dc57600080fd5b6101fe600480803590602001908201803590602001908080601f0160208091040260200160405190810160405280939291908181526020018383808284378201915050505050509190803590602001908201803590602001908080601f0160208091040260200160405190810160405280939291908181526020018383808284378201915050505050509190803590602001908201803590602001908080601f0160208091040260200160405190810160405280939291908181526020018383808284378201915050505050509190803590602001908201803590602001908080601f0160208091040260200160405190810160405280939291908181526020018383808284378201915050505050509190803590602001909190505061043e565b005b341561020b57600080fd5b61025b600480803590602001908201803590602001908080601f01602080910402602001604051908101604052809392919081815260200183838082843782019150505050505091905050610624565b6040518085151515158152602001806020018060200180602001848103845287818151815260200191508051906020019080838360005b838110156102ad578082015181840152602081019050610292565b50505050905090810190601f1680156102da5780820380516001836020036101000a031916815260200191505b50848103835286818151815260200191508051906020019080838360005b838110156103135780820151818401526020810190506102f8565b50505050905090810190601f1680156103405780820380516001836020036101000a031916815260200191505b50848103825285818151815260200191508051906020019080838360005b8381101561037957808201518184015260208101905061035e565b50505050905090810190601f1680156103a65780820380516001836020036101000a031916815260200191505b5097505050505050505060405180910390f35b60006001826040518082805190602001908083835b6020831015156103f357805182526020820191506020810190506020830392506103ce565b6001836020036101000a038019825116818451168082178552505050505050905001915050908152602001604051809103902060050160009054906101000a900460ff169050919050565b610446610999565b856001816040518082805190602001908083835b60208310151561047f578051825260208201915060208101905060208303925061045a565b6001836020036101000a038019825116818451168082178552505050505050905001915050908152602001604051809103902060050160009054906101000a900460ff161515156104cf57600080fd5b8682600001819052508582602001819052508482604001819052508382606001819052508282608001818152505060018260a0019015159081151581525050816001886040518082805190602001908083835b6020831015156105475780518252602082019150602081019050602083039250610522565b6001836020036101000a038019825116818451168082178552505050505050905001915050908152602001604051809103902060008201518160000190805190602001906105969291906109ea565b5060208201518160010190805190602001906105b39291906109ea565b5060408201518160020190805190602001906105d09291906109ea565b5060608201518160030190805190602001906105ed9291906109ea565b506080820151816004015560a08201518160050160006101000a81548160ff02191690831515021790555090505050505050505050565b600061062e610a6a565b610636610a6a565b61063e610a6a565b610646610999565b6001866040518082805190602001908083835b60208310151561067e5780518252602082019150602081019050602083039250610659565b6001836020036101000a038019825116818451168082178552505050505050905001915050908152602001604051809103902060c06040519081016040529081600082018054600181600116156101000203166002900480601f0160208091040260200160405190810160405280929190818152602001828054600181600116156101000203166002900480156107565780601f1061072b57610100808354040283529160200191610756565b820191906000526020600020905b81548152906001019060200180831161073957829003601f168201915b50505050508152602001600182018054600181600116156101000203166002900480601f0160208091040260200160405190810160405280929190818152602001828054600181600116156101000203166002900480156107f85780601f106107cd576101008083540402835291602001916107f8565b820191906000526020600020905b8154815290600101906020018083116107db57829003601f168201915b50505050508152602001600282018054600181600116156101000203166002900480601f01602080910402602001604051908101604052809291908181526020018280546001816001161561010002031660029004801561089a5780601f1061086f5761010080835404028352916020019161089a565b820191906000526020600020905b81548152906001019060200180831161087d57829003601f168201915b50505050508152602001600382018054600181600116156101000203166002900480601f01602080910402602001604051908101604052809291908181526020018280546001816001161561010002031660029004801561093c5780601f106109115761010080835404028352916020019161093c565b820191906000526020600020905b81548152906001019060200180831161091f57829003601f168201915b50505050508152602001600482015481526020016005820160009054906101000a900460ff16151515158152505090508060a001518160200151826040015183606001518292508191508090509450945094509450509193509193565b60c0604051908101604052806109ad610a7e565b81526020016109ba610a7e565b81526020016109c7610a7e565b81526020016109d4610a7e565b8152602001600081526020016000151581525090565b828054600181600116156101000203166002900490600052602060002090601f016020900481019282601f10610a2b57805160ff1916838001178555610a59565b82800160010185558215610a59579182015b82811115610a58578251825591602001919060010190610a3d565b5b509050610a669190610a92565b5090565b602060405190810160405280600081525090565b602060405190810160405280600081525090565b610ab491905b80821115610ab0576000816000905550600101610a98565b5090565b905600a165627a7a72305820dce351ffe021690290f315ecebe9b619cbfc6d898c60b9efa8bd8157cf3740c60029",
  "source": "pragma solidity ^0.4.17;\r\n\r\ncontract DocumentWriter {\r\n    address owner;\r\n    mapping(string => Document) documents;\r\n\r\n    struct Document {\r\n        string fileHash;\r\n        string title;\r\n        string author;\r\n        string email;\r\n        uint256 createdOn;\r\n        bool isValue;\r\n    }\r\n\r\n    modifier documentMustNotExist(string fileHash){\r\n        require(!documents[fileHash].isValue);\r\n        _;\r\n    }\r\n\r\n    function DocumentWriter() public {\r\n        owner = msg.sender;\r\n    }\r\n\r\n    function uploadDocument(string fileHash,string title, string author,string email, uint256 createdOn) public documentMustNotExist(fileHash) {  \r\n       Document memory newDocument;\r\n       newDocument.fileHash = fileHash;\r\n       newDocument.title = title;\r\n       newDocument.author = author;\r\n       newDocument.email = email;\r\n       newDocument.createdOn = createdOn;\r\n       newDocument.isValue = true;\r\n\r\n       documents[fileHash] = newDocument;\r\n    }\r\n\r\n    function getDocument(string fileHash) view public returns (bool,string,string,string) {\r\n        Document memory doc = documents[fileHash];\r\n\r\n        return (doc.isValue,doc.title,doc.author,doc.email);\r\n    }\r\n\r\n    function documentExists(string fileHash) view public returns(bool) {\r\n        return documents[fileHash].isValue;\r\n    } \r\n\r\n\r\n}",
  "sourcePath": "c:\\Projects\\DocumentAuthenticity\\contracts\\DocumentWriter.sol",
  "compiler": {
    "name": "solc",
    "version": "0.4.21+commit.dfe3193c.Emscripten.clang"
  },
  "schemaVersion": "2.0.0",
  "updatedAt": "2018-04-10T19:23:06.274Z"
}