{
  "contractName": "DocumentWriter",
  "abi": [
    {
      "constant": true,
      "inputs": [
        {
          "name": "fileHash",
          "type": "string"
        }
      ],
      "name": "documentExists",
      "outputs": [
        {
          "name": "",
          "type": "bool"
        }
      ],
      "payable": false,
      "stateMutability": "view",
      "type": "function"
    },
    {
      "constant": false,
      "inputs": [
        {
          "name": "fileHash",
          "type": "string"
        },
        {
          "name": "title",
          "type": "string"
        },
        {
          "name": "author",
          "type": "string"
        },
        {
          "name": "email",
          "type": "string"
        },
        {
          "name": "createdOn",
          "type": "uint256"
        }
      ],
      "name": "uploadDocument",
      "outputs": [],
      "payable": false,
      "stateMutability": "nonpayable",
      "type": "function"
    },
    {
      "inputs": [],
      "payable": false,
      "stateMutability": "nonpayable",
      "type": "constructor"
    }
  ],
  "bytecode": "0x6060604052341561000f57600080fd5b336000806101000a81548173ffffffffffffffffffffffffffffffffffffffff021916908373ffffffffffffffffffffffffffffffffffffffff1602179055506105968061005e6000396000f30060606040526004361061004c576000357c0100000000000000000000000000000000000000000000000000000000900463ffffffff1680633026785f146100515780636c867cae146100c6575b600080fd5b341561005c57600080fd5b6100ac600480803590602001908201803590602001908080601f016020809104026020016040519081016040528093929190818152602001838380828437820191505050505050919050506101f5565b604051808215151515815260200191505060405180910390f35b34156100d157600080fd5b6101f3600480803590602001908201803590602001908080601f0160208091040260200160405190810160405280939291908181526020018383808284378201915050505050509190803590602001908201803590602001908080601f0160208091040260200160405190810160405280939291908181526020018383808284378201915050505050509190803590602001908201803590602001908080601f0160208091040260200160405190810160405280939291908181526020018383808284378201915050505050509190803590602001908201803590602001908080601f0160208091040260200160405190810160405280939291908181526020018383808284378201915050505050509190803590602001909190505061027a565b005b60006001826040518082805190602001908083835b60208310151561022f578051825260208201915060208101905060208303925061020a565b6001836020036101000a038019825116818451168082178552505050505050905001915050908152602001604051809103902060050160009054906101000a900460ff169050919050565b610282610460565b856001816040518082805190602001908083835b6020831015156102bb5780518252602082019150602081019050602083039250610296565b6001836020036101000a038019825116818451168082178552505050505050905001915050908152602001604051809103902060050160009054906101000a900460ff1615151561030b57600080fd5b8682600001819052508582602001819052508482604001819052508382606001819052508282608001818152505060018260a0019015159081151581525050816001886040518082805190602001908083835b602083101515610383578051825260208201915060208101905060208303925061035e565b6001836020036101000a038019825116818451168082178552505050505050905001915050908152602001604051809103902060008201518160000190805190602001906103d29291906104b1565b5060208201518160010190805190602001906103ef9291906104b1565b50604082015181600201908051906020019061040c9291906104b1565b5060608201518160030190805190602001906104299291906104b1565b506080820151816004015560a08201518160050160006101000a81548160ff02191690831515021790555090505050505050505050565b60c060405190810160405280610474610531565b8152602001610481610531565b815260200161048e610531565b815260200161049b610531565b8152602001600081526020016000151581525090565b828054600181600116156101000203166002900490600052602060002090601f016020900481019282601f106104f257805160ff1916838001178555610520565b82800160010185558215610520579182015b8281111561051f578251825591602001919060010190610504565b5b50905061052d9190610545565b5090565b602060405190810160405280600081525090565b61056791905b8082111561056357600081600090555060010161054b565b5090565b905600a165627a7a72305820a853b1213cf84947e07c3613784ca35e4559891018ee0164b4845dd19039b5eb0029",
  "source": "pragma solidity ^0.4.17;\r\n\r\ncontract DocumentWriter {\r\n    address owner;\r\n    mapping(string => Document) documents;\r\n\r\n    struct Document {\r\n        string fileHash;\r\n        string title;\r\n        string author;\r\n        string email;\r\n        uint256 createdOn;\r\n        bool isValue;\r\n    }\r\n\r\n    modifier documentMustNotExist(string fileHash){\r\n        require(!documents[fileHash].isValue);\r\n        _;\r\n    }\r\n\r\n    function DocumentWriter() public {\r\n        owner = msg.sender;\r\n    }\r\n\r\n    function uploadDocument(string fileHash,string title, string author,string email, uint256 createdOn) public \r\n        documentMustNotExist(fileHash) \r\n    {\r\n        \r\n       Document memory newDocument;\r\n       newDocument.fileHash = fileHash;\r\n       newDocument.title = title;\r\n       newDocument.author = author;\r\n       newDocument.email = email;\r\n       newDocument.createdOn = createdOn;\r\n       newDocument.isValue = true;\r\n\r\n       documents[fileHash] = newDocument;\r\n\r\n    }\r\n\r\n    function documentExists(string fileHash) view public returns(bool) {\r\n        return documents[fileHash].isValue;\r\n    } \r\n\r\n\r\n}",
  "sourcePath": "c:\\temp\\Ethereum\\DocumentAuthenticity\\contracts\\DocumentWriter.sol",
  "compiler": {
    "name": "solc",
    "version": "0.4.18+commit.9cf6e910.Emscripten.clang"
  },
  "schemaVersion": "1.0.1",
  "updatedAt": "2018-04-09T20:41:33.687Z"
}